{
  "address": "0x367707f181Dd96EF2FA90188496D10FEDd284dc4",
  "abi": [
    {
      "inputs": [
        {
          "internalType": "string",
          "name": "_baseURI",
          "type": "string"
        }
      ],
      "stateMutability": "nonpayable",
      "type": "constructor"
    },
    {
      "inputs": [],
      "name": "CaseManager__RecipientHasNoRole",
      "type": "error"
    },
    {
      "inputs": [],
      "name": "CaseManager__TransferNotAllowed",
      "type": "error"
    },
    {
      "anonymous": false,
      "inputs": [
        {
          "indexed": true,
          "internalType": "address",
          "name": "account",
          "type": "address"
        },
        {
          "indexed": true,
          "internalType": "address",
          "name": "operator",
          "type": "address"
        },
        {
          "indexed": false,
          "internalType": "bool",
          "name": "approved",
          "type": "bool"
        }
      ],
      "name": "ApprovalForAll",
      "type": "event"
    },
    {
      "anonymous": false,
      "inputs": [
        {
          "indexed": false,
          "internalType": "address",
          "name": "_partyA",
          "type": "address"
        },
        {
          "indexed": false,
          "internalType": "address",
          "name": "_partyB",
          "type": "address"
        },
        {
          "indexed": false,
          "internalType": "uint32",
          "name": "_caseId",
          "type": "uint32"
        }
      ],
      "name": "NewCaseOpened",
      "type": "event"
    },
    {
      "anonymous": false,
      "inputs": [
        {
          "indexed": true,
          "internalType": "address",
          "name": "previousOwner",
          "type": "address"
        },
        {
          "indexed": true,
          "internalType": "address",
          "name": "newOwner",
          "type": "address"
        }
      ],
      "name": "OwnershipTransferred",
      "type": "event"
    },
    {
      "anonymous": false,
      "inputs": [
        {
          "indexed": true,
          "internalType": "address",
          "name": "operator",
          "type": "address"
        },
        {
          "indexed": true,
          "internalType": "address",
          "name": "from",
          "type": "address"
        },
        {
          "indexed": true,
          "internalType": "address",
          "name": "to",
          "type": "address"
        },
        {
          "indexed": false,
          "internalType": "uint256[]",
          "name": "ids",
          "type": "uint256[]"
        },
        {
          "indexed": false,
          "internalType": "uint256[]",
          "name": "values",
          "type": "uint256[]"
        }
      ],
      "name": "TransferBatch",
      "type": "event"
    },
    {
      "anonymous": false,
      "inputs": [
        {
          "indexed": true,
          "internalType": "address",
          "name": "operator",
          "type": "address"
        },
        {
          "indexed": true,
          "internalType": "address",
          "name": "from",
          "type": "address"
        },
        {
          "indexed": true,
          "internalType": "address",
          "name": "to",
          "type": "address"
        },
        {
          "indexed": false,
          "internalType": "uint256",
          "name": "id",
          "type": "uint256"
        },
        {
          "indexed": false,
          "internalType": "uint256",
          "name": "value",
          "type": "uint256"
        }
      ],
      "name": "TransferSingle",
      "type": "event"
    },
    {
      "anonymous": false,
      "inputs": [
        {
          "indexed": false,
          "internalType": "string",
          "name": "value",
          "type": "string"
        },
        {
          "indexed": true,
          "internalType": "uint256",
          "name": "id",
          "type": "uint256"
        }
      ],
      "name": "URI",
      "type": "event"
    },
    {
      "inputs": [
        {
          "internalType": "address",
          "name": "account",
          "type": "address"
        },
        {
          "internalType": "uint256",
          "name": "id",
          "type": "uint256"
        }
      ],
      "name": "balanceOf",
      "outputs": [
        {
          "internalType": "uint256",
          "name": "",
          "type": "uint256"
        }
      ],
      "stateMutability": "view",
      "type": "function"
    },
    {
      "inputs": [
        {
          "internalType": "address[]",
          "name": "accounts",
          "type": "address[]"
        },
        {
          "internalType": "uint256[]",
          "name": "ids",
          "type": "uint256[]"
        }
      ],
      "name": "balanceOfBatch",
      "outputs": [
        {
          "internalType": "uint256[]",
          "name": "",
          "type": "uint256[]"
        }
      ],
      "stateMutability": "view",
      "type": "function"
    },
    {
      "inputs": [
        {
          "internalType": "uint32",
          "name": "_hash",
          "type": "uint32"
        }
      ],
      "name": "doesCaseExist",
      "outputs": [
        {
          "internalType": "bool",
          "name": "",
          "type": "bool"
        }
      ],
      "stateMutability": "view",
      "type": "function"
    },
    {
      "inputs": [
        {
          "internalType": "address",
          "name": "account",
          "type": "address"
        },
        {
          "internalType": "address",
          "name": "operator",
          "type": "address"
        }
      ],
      "name": "isApprovedForAll",
      "outputs": [
        {
          "internalType": "bool",
          "name": "",
          "type": "bool"
        }
      ],
      "stateMutability": "view",
      "type": "function"
    },
    {
      "inputs": [
        {
          "internalType": "address",
          "name": "_partyA",
          "type": "address"
        },
        {
          "internalType": "address",
          "name": "_partyB",
          "type": "address"
        },
        {
          "internalType": "string",
          "name": "_caseName",
          "type": "string"
        }
      ],
      "name": "openCase",
      "outputs": [
        {
          "internalType": "uint32",
          "name": "caseId",
          "type": "uint32"
        }
      ],
      "stateMutability": "nonpayable",
      "type": "function"
    },
    {
      "inputs": [],
      "name": "owner",
      "outputs": [
        {
          "internalType": "address",
          "name": "",
          "type": "address"
        }
      ],
      "stateMutability": "view",
      "type": "function"
    },
    {
      "inputs": [],
      "name": "renounceOwnership",
      "outputs": [],
      "stateMutability": "nonpayable",
      "type": "function"
    },
    {
      "inputs": [
        {
          "internalType": "address",
          "name": "from",
          "type": "address"
        },
        {
          "internalType": "address",
          "name": "to",
          "type": "address"
        },
        {
          "internalType": "uint256[]",
          "name": "ids",
          "type": "uint256[]"
        },
        {
          "internalType": "uint256[]",
          "name": "amounts",
          "type": "uint256[]"
        },
        {
          "internalType": "bytes",
          "name": "data",
          "type": "bytes"
        }
      ],
      "name": "safeBatchTransferFrom",
      "outputs": [],
      "stateMutability": "nonpayable",
      "type": "function"
    },
    {
      "inputs": [
        {
          "internalType": "address",
          "name": "",
          "type": "address"
        },
        {
          "internalType": "address",
          "name": "",
          "type": "address"
        },
        {
          "internalType": "uint256",
          "name": "",
          "type": "uint256"
        },
        {
          "internalType": "uint256",
          "name": "",
          "type": "uint256"
        },
        {
          "internalType": "bytes",
          "name": "",
          "type": "bytes"
        }
      ],
      "name": "safeTransferFrom",
      "outputs": [],
      "stateMutability": "pure",
      "type": "function"
    },
    {
      "inputs": [
        {
          "internalType": "address",
          "name": "",
          "type": "address"
        },
        {
          "internalType": "bool",
          "name": "",
          "type": "bool"
        }
      ],
      "name": "setApprovalForAll",
      "outputs": [],
      "stateMutability": "pure",
      "type": "function"
    },
    {
      "inputs": [
        {
          "internalType": "string",
          "name": "_newURI",
          "type": "string"
        }
      ],
      "name": "setURI",
      "outputs": [],
      "stateMutability": "nonpayable",
      "type": "function"
    },
    {
      "inputs": [
        {
          "internalType": "bytes4",
          "name": "interfaceId",
          "type": "bytes4"
        }
      ],
      "name": "supportsInterface",
      "outputs": [
        {
          "internalType": "bool",
          "name": "",
          "type": "bool"
        }
      ],
      "stateMutability": "view",
      "type": "function"
    },
    {
      "inputs": [
        {
          "internalType": "address",
          "name": "newOwner",
          "type": "address"
        }
      ],
      "name": "transferOwnership",
      "outputs": [],
      "stateMutability": "nonpayable",
      "type": "function"
    },
    {
      "inputs": [
        {
          "internalType": "uint256",
          "name": "_tokenid",
          "type": "uint256"
        }
      ],
      "name": "uri",
      "outputs": [
        {
          "internalType": "string",
          "name": "",
          "type": "string"
        }
      ],
      "stateMutability": "view",
      "type": "function"
    }
  ],
  "transactionHash": "0x9401eef571fd7b01cfe2985c170168d39e398e5aa9a25ecf25bed34ca1b56b79",
  "args": [
    "https://ekiio.infura-ipfs.io/ipfs/"
  ],
  "numDeployments": 1,
  "solcInputHash": "2b1679e638f5f23ebbc485765f4c430d",
  "bytecode": "0x60a0604052604051806020016040528060008152506003908162000024919062000435565b503480156200003257600080fd5b50604051620040a2380380620040a2833981810160405281019062000058919062000680565b806200006a81620000d860201b60201c565b506200008b6200007f620000ed60201b60201c565b620000f560201b60201c565b3373ffffffffffffffffffffffffffffffffffffffff1660808173ffffffffffffffffffffffffffffffffffffffff16815250508060079081620000d0919062000435565b5050620006d1565b8060029081620000e9919062000435565b5050565b600033905090565b6000600560009054906101000a900473ffffffffffffffffffffffffffffffffffffffff16905081600560006101000a81548173ffffffffffffffffffffffffffffffffffffffff021916908373ffffffffffffffffffffffffffffffffffffffff1602179055508173ffffffffffffffffffffffffffffffffffffffff168173ffffffffffffffffffffffffffffffffffffffff167f8be0079c531659141344cd1fd0a4f28419497f9722a3daafe3b4186f6b6457e060405160405180910390a35050565b600081519050919050565b7f4e487b7100000000000000000000000000000000000000000000000000000000600052604160045260246000fd5b7f4e487b7100000000000000000000000000000000000000000000000000000000600052602260045260246000fd5b600060028204905060018216806200023d57607f821691505b602082108103620002535762000252620001f5565b5b50919050565b60008190508160005260206000209050919050565b60006020601f8301049050919050565b600082821b905092915050565b600060088302620002bd7fffffffffffffffffffffffffffffffffffffffffffffffffffffffffffffffff826200027e565b620002c986836200027e565b95508019841693508086168417925050509392505050565b6000819050919050565b6000819050919050565b600062000316620003106200030a84620002e1565b620002eb565b620002e1565b9050919050565b6000819050919050565b6200033283620002f5565b6200034a62000341826200031d565b8484546200028b565b825550505050565b600090565b6200036162000352565b6200036e81848462000327565b505050565b5b8181101562000396576200038a60008262000357565b60018101905062000374565b5050565b601f821115620003e557620003af8162000259565b620003ba846200026e565b81016020851015620003ca578190505b620003e2620003d9856200026e565b83018262000373565b50505b505050565b600082821c905092915050565b60006200040a60001984600802620003ea565b1980831691505092915050565b6000620004258383620003f7565b9150826002028217905092915050565b6200044082620001bb565b67ffffffffffffffff8111156200045c576200045b620001c6565b5b62000468825462000224565b620004758282856200039a565b600060209050601f831160018114620004ad576000841562000498578287015190505b620004a4858262000417565b86555062000514565b601f198416620004bd8662000259565b60005b82811015620004e757848901518255600182019150602085019450602081019050620004c0565b8683101562000507578489015162000503601f891682620003f7565b8355505b6001600288020188555050505b505050505050565b6000604051905090565b600080fd5b600080fd5b600080fd5b600080fd5b6000601f19601f8301169050919050565b62000556826200053a565b810181811067ffffffffffffffff82111715620005785762000577620001c6565b5b80604052505050565b60006200058d6200051c565b90506200059b82826200054b565b919050565b600067ffffffffffffffff821115620005be57620005bd620001c6565b5b620005c9826200053a565b9050602081019050919050565b60005b83811015620005f6578082015181840152602081019050620005d9565b60008484015250505050565b6000620006196200061384620005a0565b62000581565b90508281526020810184848401111562000638576200063762000535565b5b62000645848285620005d6565b509392505050565b600082601f83011262000665576200066462000530565b5b81516200067784826020860162000602565b91505092915050565b60006020828403121562000699576200069862000526565b5b600082015167ffffffffffffffff811115620006ba57620006b96200052b565b5b620006c8848285016200064d565b91505092915050565b6080516139b8620006ea600039600050506139b86000f3fe608060405234801561001057600080fd5b50600436106100e95760003560e01c8063715018a61161008c578063d801532611610066578063d80153261461025a578063e985e9c51461028a578063f242432a146102ba578063f2fde38b146102d6576100e9565b8063715018a6146102165780638da5cb5b14610220578063a22cb4651461023e576100e9565b80630e89341c116100c85780630e89341c1461016a5780632eb2c2d61461019a578063419e2e58146101b65780634e1273f4146101e6576100e9565b8062fdd58e146100ee57806301ffc9a71461011e57806302fe53051461014e575b600080fd5b61010860048036038101906101039190611c0a565b6102f2565b6040516101159190611c59565b60405180910390f35b61013860048036038101906101339190611ccc565b6103ba565b6040516101459190611d14565b60405180910390f35b61016860048036038101906101639190611e75565b61049c565b005b610184600480360381019061017f9190611ebe565b6104b7565b6040516101919190611f6a565b60405180910390f35b6101b460048036038101906101af91906120f5565b6105c6565b005b6101d060048036038101906101cb9190612200565b610667565b6040516101dd9190611d14565b60405180910390f35b61020060048036038101906101fb91906122f0565b61069d565b60405161020d9190612426565b60405180910390f35b61021e6107b6565b005b6102286107ca565b6040516102359190612457565b60405180910390f35b6102586004803603810190610253919061249e565b6107f4565b005b610274600480360381019061026f91906124de565b610826565b604051610281919061255c565b60405180910390f35b6102a4600480360381019061029f9190612577565b610a15565b6040516102b19190611d14565b60405180910390f35b6102d460048036038101906102cf91906125b7565b610aa9565b005b6102f060048036038101906102eb919061264e565b610adb565b005b60008073ffffffffffffffffffffffffffffffffffffffff168373ffffffffffffffffffffffffffffffffffffffff1603610362576040517f08c379a0000000000000000000000000000000000000000000000000000000008152600401610359906126ed565b60405180910390fd5b60008083815260200190815260200160002060008473ffffffffffffffffffffffffffffffffffffffff1673ffffffffffffffffffffffffffffffffffffffff16815260200190815260200160002054905092915050565b60007fd9b67a26000000000000000000000000000000000000000000000000000000007bffffffffffffffffffffffffffffffffffffffffffffffffffffffff1916827bffffffffffffffffffffffffffffffffffffffffffffffffffffffff1916148061048557507f0e89341c000000000000000000000000000000000000000000000000000000007bffffffffffffffffffffffffffffffffffffffffffffffffffffffff1916827bffffffffffffffffffffffffffffffffffffffffffffffffffffffff1916145b80610495575061049482610b5e565b5b9050919050565b6104a4610bc8565b80600790816104b39190612919565b5050565b60606105a06104d1600a846104cc9190612a49565b610c46565b6040516020016104e19190612ab6565b604051602081830303815290604052610505600a856105009190612acd565b610c46565b6040516020016105159190612ab6565b604051602081830303815290604052600761053b600a876105369190612acd565b610c46565b60405160200161054c929190612b81565b60405160208183030381529060405260405160200161056b9190612ab6565b60405160208183030381529060405260405160200161058c93929190612e26565b604051602081830303815290604052610d14565b6040516020016105b09190612ee5565b6040516020818303038152906040529050919050565b6105ce610e8c565b73ffffffffffffffffffffffffffffffffffffffff168573ffffffffffffffffffffffffffffffffffffffff16148061061457506106138561060e610e8c565b610a15565b5b610653576040517f08c379a000000000000000000000000000000000000000000000000000000000815260040161064a90612f79565b60405180910390fd5b6106608585858585610e94565b5050505050565b6000600860008363ffffffff1663ffffffff16815260200190815260200160002060009054906101000a900460ff169050919050565b606081518351146106e3576040517f08c379a00000000000000000000000000000000000000000000000000000000081526004016106da9061300b565b60405180910390fd5b6000835167ffffffffffffffff811115610700576106ff611d4a565b5b60405190808252806020026020018201604052801561072e5781602001602082028036833780820191505090505b50905060005b84518110156107ab5761077b8582815181106107535761075261302b565b5b602002602001015185838151811061076e5761076d61302b565b5b60200260200101516102f2565b82828151811061078e5761078d61302b565b5b602002602001018181525050806107a49061305a565b9050610734565b508091505092915050565b6107be610bc8565b6107c860006111b5565b565b6000600560009054906101000a900473ffffffffffffffffffffffffffffffffffffffff16905090565b6040517f097d8b1000000000000000000000000000000000000000000000000000000000815260040160405180910390fd5b600080633b9aca00858585604051602001610843939291906130ea565b6040516020818303038152906040528051906020012060001c6108669190612acd565b9050809150600860008363ffffffff1663ffffffff16815260200190815260200160002060009054906101000a900460ff16156108d8576040517f08c379a00000000000000000000000000000000000000000000000000000000081526004016108cf9061316f565b60405180910390fd5b6001600860008463ffffffff1663ffffffff16815260200190815260200160002060006101000a81548160ff021916908315150217905550600160028111156109245761092361318f565b5b600960008773ffffffffffffffffffffffffffffffffffffffff1673ffffffffffffffffffffffffffffffffffffffff168152602001908152602001600020819055506001600281111561097b5761097a61318f565b5b600960008673ffffffffffffffffffffffffffffffffffffffff1673ffffffffffffffffffffffffffffffffffffffff168152602001908152602001600020819055506109c8858361127b565b6109d2848361127b565b7fcfecaf4dbd097fdeb8922c5c4518cb8e65144446e68a54a071603ea2016b7d2e858584604051610a05939291906131be565b60405180910390a1509392505050565b6000600160008473ffffffffffffffffffffffffffffffffffffffff1673ffffffffffffffffffffffffffffffffffffffff16815260200190815260200160002060008373ffffffffffffffffffffffffffffffffffffffff1673ffffffffffffffffffffffffffffffffffffffff16815260200190815260200160002060009054906101000a900460ff16905092915050565b6040517f097d8b1000000000000000000000000000000000000000000000000000000000815260040160405180910390fd5b610ae3610bc8565b600073ffffffffffffffffffffffffffffffffffffffff168173ffffffffffffffffffffffffffffffffffffffff1603610b52576040517f08c379a0000000000000000000000000000000000000000000000000000000008152600401610b4990613267565b60405180910390fd5b610b5b816111b5565b50565b60007f01ffc9a7000000000000000000000000000000000000000000000000000000007bffffffffffffffffffffffffffffffffffffffffffffffffffffffff1916827bffffffffffffffffffffffffffffffffffffffffffffffffffffffff1916149050919050565b610bd0610e8c565b73ffffffffffffffffffffffffffffffffffffffff16610bee6107ca565b73ffffffffffffffffffffffffffffffffffffffff1614610c44576040517f08c379a0000000000000000000000000000000000000000000000000000000008152600401610c3b906132d3565b60405180910390fd5b565b606060006001610c55846112aa565b01905060008167ffffffffffffffff811115610c7457610c73611d4a565b5b6040519080825280601f01601f191660200182016040528015610ca65781602001600182028036833780820191505090505b509050600082602001820190505b600115610d09578080600190039150507f3031323334353637383961626364656600000000000000000000000000000000600a86061a8153600a8581610cfd57610cfc6129eb565b5b04945060008503610cb4575b819350505050919050565b60606000825103610d3657604051806020016040528060008152509050610e87565b60006040518060600160405280604081526020016139436040913990506000600360028551610d6591906132f3565b610d6f9190612a49565b6004610d7b9190613327565b90506000602082610d8c91906132f3565b67ffffffffffffffff811115610da557610da4611d4a565b5b6040519080825280601f01601f191660200182016040528015610dd75781602001600182028036833780820191505090505b509050818152600183018586518101602084015b81831015610e46576003830192508251603f8160121c168501518253600182019150603f81600c1c168501518253600182019150603f8160061c168501518253600182019150603f8116850151825360018201915050610deb565b600389510660018114610e605760028114610e7057610e7b565b613d3d60f01b6002830352610e7b565b603d60f81b60018303525b50505050508093505050505b919050565b600033905090565b8151835114610ed8576040517f08c379a0000000000000000000000000000000000000000000000000000000008152600401610ecf906133db565b60405180910390fd5b600073ffffffffffffffffffffffffffffffffffffffff168473ffffffffffffffffffffffffffffffffffffffff1603610f47576040517f08c379a0000000000000000000000000000000000000000000000000000000008152600401610f3e9061346d565b60405180910390fd5b6000610f51610e8c565b9050610f618187878787876113fd565b60005b8451811015611112576000858281518110610f8257610f8161302b565b5b602002602001015190506000858381518110610fa157610fa061302b565b5b60200260200101519050600080600084815260200190815260200160002060008b73ffffffffffffffffffffffffffffffffffffffff1673ffffffffffffffffffffffffffffffffffffffff16815260200190815260200160002054905081811015611042576040517f08c379a0000000000000000000000000000000000000000000000000000000008152600401611039906134ff565b60405180910390fd5b81810360008085815260200190815260200160002060008c73ffffffffffffffffffffffffffffffffffffffff1673ffffffffffffffffffffffffffffffffffffffff168152602001908152602001600020819055508160008085815260200190815260200160002060008b73ffffffffffffffffffffffffffffffffffffffff1673ffffffffffffffffffffffffffffffffffffffff16815260200190815260200160002060008282546110f791906132f3565b925050819055505050508061110b9061305a565b9050610f64565b508473ffffffffffffffffffffffffffffffffffffffff168673ffffffffffffffffffffffffffffffffffffffff168273ffffffffffffffffffffffffffffffffffffffff167f4a39dc06d4c0dbc64b70af90fd698a233a518aa5d07e595d983b8c0526c8f7fb878760405161118992919061351f565b60405180910390a461119f818787878787611405565b6111ad81878787878761140d565b505050505050565b6000600560009054906101000a900473ffffffffffffffffffffffffffffffffffffffff16905081600560006101000a81548173ffffffffffffffffffffffffffffffffffffffff021916908373ffffffffffffffffffffffffffffffffffffffff1602179055508173ffffffffffffffffffffffffffffffffffffffff168173ffffffffffffffffffffffffffffffffffffffff167f8be0079c531659141344cd1fd0a4f28419497f9722a3daafe3b4186f6b6457e060405160405180910390a35050565b600061128782846115e4565b90506112a5838260016040518060200160405280600081525061173e565b505050565b600080600090507a184f03e93ff9f4daa797ed6e38ed64bf6a1f0100000000000000008310611308577a184f03e93ff9f4daa797ed6e38ed64bf6a1f01000000000000000083816112fe576112fd6129eb565b5b0492506040810190505b6d04ee2d6d415b85acef81000000008310611345576d04ee2d6d415b85acef8100000000838161133b5761133a6129eb565b5b0492506020810190505b662386f26fc10000831061137457662386f26fc10000838161136a576113696129eb565b5b0492506010810190505b6305f5e100831061139d576305f5e1008381611393576113926129eb565b5b0492506008810190505b61271083106113c25761271083816113b8576113b76129eb565b5b0492506004810190505b606483106113e557606483816113db576113da6129eb565b5b0492506002810190505b600a83106113f4576001810190505b80915050919050565b505050505050565b505050505050565b61142c8473ffffffffffffffffffffffffffffffffffffffff166118ee565b156115dc578373ffffffffffffffffffffffffffffffffffffffff1663bc197c8187878686866040518663ffffffff1660e01b81526004016114729594939291906135a0565b6020604051808303816000875af19250505080156114ae57506040513d601f19601f820116820180604052508101906114ab919061361d565b60015b611553576114ba613657565b806308c379a00361151657506114ce613679565b806114d95750611518565b806040517f08c379a000000000000000000000000000000000000000000000000000000000815260040161150d9190611f6a565b60405180910390fd5b505b6040517f08c379a000000000000000000000000000000000000000000000000000000000815260040161154a9061377b565b60405180910390fd5b63bc197c8160e01b7bffffffffffffffffffffffffffffffffffffffffffffffffffffffff1916817bffffffffffffffffffffffffffffffffffffffffffffffffffffffff1916146115da576040517f08c379a00000000000000000000000000000000000000000000000000000000081526004016115d19061380d565b60405180910390fd5b505b505050505050565b6000600160028111156115fa576115f961318f565b5b600960008473ffffffffffffffffffffffffffffffffffffffff1673ffffffffffffffffffffffffffffffffffffffff168152602001908152602001600020540361167757600160028111156116535761165261318f565b5b600a8463ffffffff166116669190613327565b61167091906132f3565b9050611738565b60028081111561168a5761168961318f565b5b600960008473ffffffffffffffffffffffffffffffffffffffff1673ffffffffffffffffffffffffffffffffffffffff1681526020019081526020016000205403611706576002808111156116e2576116e161318f565b5b600a8463ffffffff166116f59190613327565b6116ff91906132f3565b9050611738565b6040517f0259ba8100000000000000000000000000000000000000000000000000000000815260040160405180910390fd5b92915050565b600073ffffffffffffffffffffffffffffffffffffffff168473ffffffffffffffffffffffffffffffffffffffff16036117ad576040517f08c379a00000000000000000000000000000000000000000000000000000000081526004016117a49061389f565b60405180910390fd5b60006117b7610e8c565b905060006117c485611911565b905060006117d185611911565b90506117e2836000898585896113fd565b8460008088815260200190815260200160002060008973ffffffffffffffffffffffffffffffffffffffff1673ffffffffffffffffffffffffffffffffffffffff168152602001908152602001600020600082825461184191906132f3565b925050819055508673ffffffffffffffffffffffffffffffffffffffff16600073ffffffffffffffffffffffffffffffffffffffff168473ffffffffffffffffffffffffffffffffffffffff167fc3d58168c5ae7397731d063d5bbf3d657854427343f4c083240f7aacaa2d0f6289896040516118bf9291906138bf565b60405180910390a46118d683600089858589611405565b6118e58360008989898961198b565b50505050505050565b6000808273ffffffffffffffffffffffffffffffffffffffff163b119050919050565b60606000600167ffffffffffffffff8111156119305761192f611d4a565b5b60405190808252806020026020018201604052801561195e5781602001602082028036833780820191505090505b50905082816000815181106119765761197561302b565b5b60200260200101818152505080915050919050565b6119aa8473ffffffffffffffffffffffffffffffffffffffff166118ee565b15611b5a578373ffffffffffffffffffffffffffffffffffffffff1663f23a6e6187878686866040518663ffffffff1660e01b81526004016119f09594939291906138e8565b6020604051808303816000875af1925050508015611a2c57506040513d601f19601f82011682018060405250810190611a29919061361d565b60015b611ad157611a38613657565b806308c379a003611a945750611a4c613679565b80611a575750611a96565b806040517f08c379a0000000000000000000000000000000000000000000000000000000008152600401611a8b9190611f6a565b60405180910390fd5b505b6040517f08c379a0000000000000000000000000000000000000000000000000000000008152600401611ac89061377b565b60405180910390fd5b63f23a6e6160e01b7bffffffffffffffffffffffffffffffffffffffffffffffffffffffff1916817bffffffffffffffffffffffffffffffffffffffffffffffffffffffff191614611b58576040517f08c379a0000000000000000000000000000000000000000000000000000000008152600401611b4f9061380d565b60405180910390fd5b505b505050505050565b6000604051905090565b600080fd5b600080fd5b600073ffffffffffffffffffffffffffffffffffffffff82169050919050565b6000611ba182611b76565b9050919050565b611bb181611b96565b8114611bbc57600080fd5b50565b600081359050611bce81611ba8565b92915050565b6000819050919050565b611be781611bd4565b8114611bf257600080fd5b50565b600081359050611c0481611bde565b92915050565b60008060408385031215611c2157611c20611b6c565b5b6000611c2f85828601611bbf565b9250506020611c4085828601611bf5565b9150509250929050565b611c5381611bd4565b82525050565b6000602082019050611c6e6000830184611c4a565b92915050565b60007fffffffff0000000000000000000000000000000000000000000000000000000082169050919050565b611ca981611c74565b8114611cb457600080fd5b50565b600081359050611cc681611ca0565b92915050565b600060208284031215611ce257611ce1611b6c565b5b6000611cf084828501611cb7565b91505092915050565b60008115159050919050565b611d0e81611cf9565b82525050565b6000602082019050611d296000830184611d05565b92915050565b600080fd5b600080fd5b6000601f19601f8301169050919050565b7f4e487b7100000000000000000000000000000000000000000000000000000000600052604160045260246000fd5b611d8282611d39565b810181811067ffffffffffffffff82111715611da157611da0611d4a565b5b80604052505050565b6000611db4611b62565b9050611dc08282611d79565b919050565b600067ffffffffffffffff821115611de057611ddf611d4a565b5b611de982611d39565b9050602081019050919050565b82818337600083830152505050565b6000611e18611e1384611dc5565b611daa565b905082815260208101848484011115611e3457611e33611d34565b5b611e3f848285611df6565b509392505050565b600082601f830112611e5c57611e5b611d2f565b5b8135611e6c848260208601611e05565b91505092915050565b600060208284031215611e8b57611e8a611b6c565b5b600082013567ffffffffffffffff811115611ea957611ea8611b71565b5b611eb584828501611e47565b91505092915050565b600060208284031215611ed457611ed3611b6c565b5b6000611ee284828501611bf5565b91505092915050565b600081519050919050565b600082825260208201905092915050565b60005b83811015611f25578082015181840152602081019050611f0a565b60008484015250505050565b6000611f3c82611eeb565b611f468185611ef6565b9350611f56818560208601611f07565b611f5f81611d39565b840191505092915050565b60006020820190508181036000830152611f848184611f31565b905092915050565b600067ffffffffffffffff821115611fa757611fa6611d4a565b5b602082029050602081019050919050565b600080fd5b6000611fd0611fcb84611f8c565b611daa565b90508083825260208201905060208402830185811115611ff357611ff2611fb8565b5b835b8181101561201c57806120088882611bf5565b845260208401935050602081019050611ff5565b5050509392505050565b600082601f83011261203b5761203a611d2f565b5b813561204b848260208601611fbd565b91505092915050565b600067ffffffffffffffff82111561206f5761206e611d4a565b5b61207882611d39565b9050602081019050919050565b600061209861209384612054565b611daa565b9050828152602081018484840111156120b4576120b3611d34565b5b6120bf848285611df6565b509392505050565b600082601f8301126120dc576120db611d2f565b5b81356120ec848260208601612085565b91505092915050565b600080600080600060a0868803121561211157612110611b6c565b5b600061211f88828901611bbf565b955050602061213088828901611bbf565b945050604086013567ffffffffffffffff81111561215157612150611b71565b5b61215d88828901612026565b935050606086013567ffffffffffffffff81111561217e5761217d611b71565b5b61218a88828901612026565b925050608086013567ffffffffffffffff8111156121ab576121aa611b71565b5b6121b7888289016120c7565b9150509295509295909350565b600063ffffffff82169050919050565b6121dd816121c4565b81146121e857600080fd5b50565b6000813590506121fa816121d4565b92915050565b60006020828403121561221657612215611b6c565b5b6000612224848285016121eb565b91505092915050565b600067ffffffffffffffff82111561224857612247611d4a565b5b602082029050602081019050919050565b600061226c6122678461222d565b611daa565b9050808382526020820190506020840283018581111561228f5761228e611fb8565b5b835b818110156122b857806122a48882611bbf565b845260208401935050602081019050612291565b5050509392505050565b600082601f8301126122d7576122d6611d2f565b5b81356122e7848260208601612259565b91505092915050565b6000806040838503121561230757612306611b6c565b5b600083013567ffffffffffffffff81111561232557612324611b71565b5b612331858286016122c2565b925050602083013567ffffffffffffffff81111561235257612351611b71565b5b61235e85828601612026565b9150509250929050565b600081519050919050565b600082825260208201905092915050565b6000819050602082019050919050565b61239d81611bd4565b82525050565b60006123af8383612394565b60208301905092915050565b6000602082019050919050565b60006123d382612368565b6123dd8185612373565b93506123e883612384565b8060005b8381101561241957815161240088826123a3565b975061240b836123bb565b9250506001810190506123ec565b5085935050505092915050565b6000602082019050818103600083015261244081846123c8565b905092915050565b61245181611b96565b82525050565b600060208201905061246c6000830184612448565b92915050565b61247b81611cf9565b811461248657600080fd5b50565b60008135905061249881612472565b92915050565b600080604083850312156124b5576124b4611b6c565b5b60006124c385828601611bbf565b92505060206124d485828601612489565b9150509250929050565b6000806000606084860312156124f7576124f6611b6c565b5b600061250586828701611bbf565b935050602061251686828701611bbf565b925050604084013567ffffffffffffffff81111561253757612536611b71565b5b61254386828701611e47565b9150509250925092565b612556816121c4565b82525050565b6000602082019050612571600083018461254d565b92915050565b6000806040838503121561258e5761258d611b6c565b5b600061259c85828601611bbf565b92505060206125ad85828601611bbf565b9150509250929050565b600080600080600060a086880312156125d3576125d2611b6c565b5b60006125e188828901611bbf565b95505060206125f288828901611bbf565b945050604061260388828901611bf5565b935050606061261488828901611bf5565b925050608086013567ffffffffffffffff81111561263557612634611b71565b5b612641888289016120c7565b9150509295509295909350565b60006020828403121561266457612663611b6c565b5b600061267284828501611bbf565b91505092915050565b7f455243313135353a2061646472657373207a65726f206973206e6f742061207660008201527f616c6964206f776e657200000000000000000000000000000000000000000000602082015250565b60006126d7602a83611ef6565b91506126e28261267b565b604082019050919050565b60006020820190508181036000830152612706816126ca565b9050919050565b7f4e487b7100000000000000000000000000000000000000000000000000000000600052602260045260246000fd5b6000600282049050600182168061275457607f821691505b6020821081036127675761276661270d565b5b50919050565b60008190508160005260206000209050919050565b60006020601f8301049050919050565b600082821b905092915050565b6000600883026127cf7fffffffffffffffffffffffffffffffffffffffffffffffffffffffffffffffff82612792565b6127d98683612792565b95508019841693508086168417925050509392505050565b6000819050919050565b600061281661281161280c84611bd4565b6127f1565b611bd4565b9050919050565b6000819050919050565b612830836127fb565b61284461283c8261281d565b84845461279f565b825550505050565b600090565b61285961284c565b612864818484612827565b505050565b5b818110156128885761287d600082612851565b60018101905061286a565b5050565b601f8211156128cd5761289e8161276d565b6128a784612782565b810160208510156128b6578190505b6128ca6128c285612782565b830182612869565b50505b505050565b600082821c905092915050565b60006128f0600019846008026128d2565b1980831691505092915050565b600061290983836128df565b9150826002028217905092915050565b61292282611eeb565b67ffffffffffffffff81111561293b5761293a611d4a565b5b612945825461273c565b61295082828561288c565b600060209050601f8311600181146129835760008415612971578287015190505b61297b85826128fd565b8655506129e3565b601f1984166129918661276d565b60005b828110156129b957848901518255600182019150602085019450602081019050612994565b868310156129d657848901516129d2601f8916826128df565b8355505b6001600288020188555050505b505050505050565b7f4e487b7100000000000000000000000000000000000000000000000000000000600052601260045260246000fd5b7f4e487b7100000000000000000000000000000000000000000000000000000000600052601160045260246000fd5b6000612a5482611bd4565b9150612a5f83611bd4565b925082612a6f57612a6e6129eb565b5b828204905092915050565b600081905092915050565b6000612a9082611eeb565b612a9a8185612a7a565b9350612aaa818560208601611f07565b80840191505092915050565b6000612ac28284612a85565b915081905092915050565b6000612ad882611bd4565b9150612ae383611bd4565b925082612af357612af26129eb565b5b828206905092915050565b60008154612b0b8161273c565b612b158186612a7a565b94506001821660008114612b305760018114612b4557612b78565b60ff1983168652811515820286019350612b78565b612b4e8561276d565b60005b83811015612b7057815481890152600182019150602081019050612b51565b838801955050505b50505092915050565b6000612b8d8285612afe565b9150612b998284612a85565b91508190509392505050565b7f7b226e616d65223a2245766964656e6365204d616e6167656d656e742041636360008201527f65737320546f6b656e2200000000000000000000000000000000000000000000602082015250565b6000612c01602a83612a7a565b9150612c0c82612ba5565b602a82019050919050565b7f226465736372697074696f6e223a224772616e74732061636365737320746f2060008201527f7468652045766964656e6365204d616e6167656d656e742053797374656d222c60208201527f2000000000000000000000000000000000000000000000000000000000000000604082015250565b6000612c99604183612a7a565b9150612ca482612c17565b604182019050919050565b7f2270726f70657274696573223a207b22636173655f6964223a22000000000000600082015250565b6000612ce5601a83612a7a565b9150612cf082612caf565b601a82019050919050565b600081519050919050565b600081905092915050565b6000612d1c82612cfb565b612d268185612d06565b9350612d36818560208601611f07565b80840191505092915050565b7f222c2022726f6c65223a22000000000000000000000000000000000000000000600082015250565b6000612d78600b83612a7a565b9150612d8382612d42565b600b82019050919050565b7f227d2c2022696d616765223a2200000000000000000000000000000000000000600082015250565b6000612dc4600d83612a7a565b9150612dcf82612d8e565b600d82019050919050565b7f227d000000000000000000000000000000000000000000000000000000000000600082015250565b6000612e10600283612a7a565b9150612e1b82612dda565b600282019050919050565b6000612e3182612bf4565b9150612e3c82612c8c565b9150612e4782612cd8565b9150612e538286612d11565b9150612e5e82612d6b565b9150612e6a8285612d11565b9150612e7582612db7565b9150612e818284612d11565b9150612e8c82612e03565b9150819050949350505050565b7f646174613a6170706c69636174696f6e2f6a736f6e3b6261736536342c000000600082015250565b6000612ecf601d83612a7a565b9150612eda82612e99565b601d82019050919050565b6000612ef082612ec2565b9150612efc8284612a85565b915081905092915050565b7f455243313135353a2063616c6c6572206973206e6f7420746f6b656e206f776e60008201527f6572206f7220617070726f766564000000000000000000000000000000000000602082015250565b6000612f63602e83611ef6565b9150612f6e82612f07565b604082019050919050565b60006020820190508181036000830152612f9281612f56565b9050919050565b7f455243313135353a206163636f756e747320616e6420696473206c656e67746860008201527f206d69736d617463680000000000000000000000000000000000000000000000602082015250565b6000612ff5602983611ef6565b915061300082612f99565b604082019050919050565b6000602082019050818103600083015261302481612fe8565b9050919050565b7f4e487b7100000000000000000000000000000000000000000000000000000000600052603260045260246000fd5b600061306582611bd4565b91507fffffffffffffffffffffffffffffffffffffffffffffffffffffffffffffffff820361309757613096612a1a565b5b600182019050919050565b60008160601b9050919050565b60006130ba826130a2565b9050919050565b60006130cc826130af565b9050919050565b6130e46130df82611b96565b6130c1565b82525050565b60006130f682866130d3565b60148201915061310682856130d3565b6014820191506131168284612a85565b9150819050949350505050565b7f4361736520616c72656164792065786973747321000000000000000000000000600082015250565b6000613159601483611ef6565b915061316482613123565b602082019050919050565b600060208201905081810360008301526131888161314c565b9050919050565b7f4e487b7100000000000000000000000000000000000000000000000000000000600052602160045260246000fd5b60006060820190506131d36000830186612448565b6131e06020830185612448565b6131ed604083018461254d565b949350505050565b7f4f776e61626c653a206e6577206f776e657220697320746865207a65726f206160008201527f6464726573730000000000000000000000000000000000000000000000000000602082015250565b6000613251602683611ef6565b915061325c826131f5565b604082019050919050565b6000602082019050818103600083015261328081613244565b9050919050565b7f4f776e61626c653a2063616c6c6572206973206e6f7420746865206f776e6572600082015250565b60006132bd602083611ef6565b91506132c882613287565b602082019050919050565b600060208201905081810360008301526132ec816132b0565b9050919050565b60006132fe82611bd4565b915061330983611bd4565b925082820190508082111561332157613320612a1a565b5b92915050565b600061333282611bd4565b915061333d83611bd4565b925082820261334b81611bd4565b9150828204841483151761336257613361612a1a565b5b5092915050565b7f455243313135353a2069647320616e6420616d6f756e7473206c656e6774682060008201527f6d69736d61746368000000000000000000000000000000000000000000000000602082015250565b60006133c5602883611ef6565b91506133d082613369565b604082019050919050565b600060208201905081810360008301526133f4816133b8565b9050919050565b7f455243313135353a207472616e7366657220746f20746865207a65726f20616460008201527f6472657373000000000000000000000000000000000000000000000000000000602082015250565b6000613457602583611ef6565b9150613462826133fb565b604082019050919050565b600060208201905081810360008301526134868161344a565b9050919050565b7f455243313135353a20696e73756666696369656e742062616c616e636520666f60008201527f72207472616e7366657200000000000000000000000000000000000000000000602082015250565b60006134e9602a83611ef6565b91506134f48261348d565b604082019050919050565b60006020820190508181036000830152613518816134dc565b9050919050565b6000604082019050818103600083015261353981856123c8565b9050818103602083015261354d81846123c8565b90509392505050565b600082825260208201905092915050565b600061357282612cfb565b61357c8185613556565b935061358c818560208601611f07565b61359581611d39565b840191505092915050565b600060a0820190506135b56000830188612448565b6135c26020830187612448565b81810360408301526135d481866123c8565b905081810360608301526135e881856123c8565b905081810360808301526135fc8184613567565b90509695505050505050565b60008151905061361781611ca0565b92915050565b60006020828403121561363357613632611b6c565b5b600061364184828501613608565b91505092915050565b60008160e01c9050919050565b600060033d11156136765760046000803e61367360005161364a565b90505b90565b600060443d106137065761368b611b62565b60043d036004823e80513d602482011167ffffffffffffffff821117156136b3575050613706565b808201805167ffffffffffffffff8111156136d15750505050613706565b80602083010160043d0385018111156136ee575050505050613706565b6136fd82602001850186611d79565b82955050505050505b90565b7f455243313135353a207472616e7366657220746f206e6f6e2d4552433131353560008201527f526563656976657220696d706c656d656e746572000000000000000000000000602082015250565b6000613765603483611ef6565b915061377082613709565b604082019050919050565b6000602082019050818103600083015261379481613758565b9050919050565b7f455243313135353a204552433131353552656365697665722072656a6563746560008201527f6420746f6b656e73000000000000000000000000000000000000000000000000602082015250565b60006137f7602883611ef6565b91506138028261379b565b604082019050919050565b60006020820190508181036000830152613826816137ea565b9050919050565b7f455243313135353a206d696e7420746f20746865207a65726f2061646472657360008201527f7300000000000000000000000000000000000000000000000000000000000000602082015250565b6000613889602183611ef6565b91506138948261382d565b604082019050919050565b600060208201905081810360008301526138b88161387c565b9050919050565b60006040820190506138d46000830185611c4a565b6138e16020830184611c4a565b9392505050565b600060a0820190506138fd6000830188612448565b61390a6020830187612448565b6139176040830186611c4a565b6139246060830185611c4a565b81810360808301526139368184613567565b9050969550505050505056fe4142434445464748494a4b4c4d4e4f505152535455565758595a6162636465666768696a6b6c6d6e6f707172737475767778797a303132333435363738392b2fa264697066735822122062ff16208f9329e2194ec42704c433315d4bf88281bfdae066aa64c5c396c6b264736f6c63430008110033",
  "devdoc": {
    "author": "ekiio",
    "kind": "dev",
    "methods": {
      "balanceOf(address,uint256)": {
        "details": "See {IERC1155-balanceOf}. Requirements: - `account` cannot be the zero address."
      },
      "balanceOfBatch(address[],uint256[])": {
        "details": "See {IERC1155-balanceOfBatch}. Requirements: - `accounts` and `ids` must have the same length."
      },
      "doesCaseExist(uint32)": {
        "details": "Simple getter function for the frontend to check if a user tries      to open a case with the same parameters twice."
      },
      "isApprovedForAll(address,address)": {
        "details": "See {IERC1155-isApprovedForAll}."
      },
      "openCase(address,address,string)": {
        "details": "Called by frontend to open a new case. Creates a unique case ID         from the address of the parties as well as a short string which         is given to the case, e.g. an official case tracking number or         other unique identifier. The last 9 digits of this hash will         become the unique caseId. Throws an error when case already         exists. Creates internal records and finally calls the method         that will mint the unique access token for the evidence         submission data room."
      },
      "owner()": {
        "details": "Returns the address of the current owner."
      },
      "renounceOwnership()": {
        "details": "Leaves the contract without owner. It will not be possible to call `onlyOwner` functions anymore. Can only be called by the current owner. NOTE: Renouncing ownership will leave the contract without an owner, thereby removing any functionality that is only available to the owner."
      },
      "safeBatchTransferFrom(address,address,uint256[],uint256[],bytes)": {
        "details": "See {IERC1155-safeBatchTransferFrom}."
      },
      "setURI(string)": {
        "details": "If a new storage address needs to be set, this function will      update the address at which the token images will be stored."
      },
      "supportsInterface(bytes4)": {
        "details": "See {IERC165-supportsInterface}."
      },
      "transferOwnership(address)": {
        "details": "Transfers ownership of the contract to a new account (`newOwner`). Can only be called by the current owner."
      },
      "uri(uint256)": {
        "details": "Sets token metadata. All relevant access data can already be         deducted from the tokenId but for extra clarity and security,         having the metadata on chain might help."
      }
    },
    "title": "Case Manager of the Evidence Management System",
    "version": 1
  },
  "userdoc": {
    "kind": "user",
    "methods": {
      "openCase(address,address,string)": {
        "notice": "Following convention of naming cases. \"A v B\" and \"B v A\" are         to be treated as two separate cases, so parties A and B are         not interchangable."
      },
      "uri(uint256)": {
        "notice": "Image URL will have a simple icon depicting the role, i.e. have         a document icon for the parties, and a judge's gavel for jurors"
      }
    },
    "notice": "This contract is the central piece of the evidence management         systems. Users will be able to open a new case, given the         addresses of the dispute party and a case name (which can be         an official tracking number to make it a unique identifier).         Once a case has been created, the dispute parties will be issued         an access NFT with a unique token ID hat allows for access control,         differentiating of roles (party or juror) in the case, and -         ultimately - the encryption and decryption of files uploaded on the         frontend to IPFS, using the functionality provided by Lit Protocol.",
    "version": 1
  },
  "storageLayout": {
    "storage": [
      {
        "astId": 138,
        "contract": "contracts/CaseManager.sol:CaseManager",
        "label": "_balances",
        "offset": 0,
        "slot": "0",
        "type": "t_mapping(t_uint256,t_mapping(t_address,t_uint256))"
      },
      {
        "astId": 144,
        "contract": "contracts/CaseManager.sol:CaseManager",
        "label": "_operatorApprovals",
        "offset": 0,
        "slot": "1",
        "type": "t_mapping(t_address,t_mapping(t_address,t_bool))"
      },
      {
        "astId": 146,
        "contract": "contracts/CaseManager.sol:CaseManager",
        "label": "_uri",
        "offset": 0,
        "slot": "2",
        "type": "t_string_storage"
      },
      {
        "astId": 1511,
        "contract": "contracts/CaseManager.sol:CaseManager",
        "label": "_baseURI",
        "offset": 0,
        "slot": "3",
        "type": "t_string_storage"
      },
      {
        "astId": 1515,
        "contract": "contracts/CaseManager.sol:CaseManager",
        "label": "_tokenURIs",
        "offset": 0,
        "slot": "4",
        "type": "t_mapping(t_uint256,t_string_storage)"
      },
      {
        "astId": 7,
        "contract": "contracts/CaseManager.sol:CaseManager",
        "label": "_owner",
        "offset": 0,
        "slot": "5",
        "type": "t_address"
      },
      {
        "astId": 3171,
        "contract": "contracts/CaseManager.sol:CaseManager",
        "label": "s_tokenId",
        "offset": 0,
        "slot": "6",
        "type": "t_uint256"
      },
      {
        "astId": 3173,
        "contract": "contracts/CaseManager.sol:CaseManager",
        "label": "s_baseURI",
        "offset": 0,
        "slot": "7",
        "type": "t_string_storage"
      },
      {
        "astId": 3177,
        "contract": "contracts/CaseManager.sol:CaseManager",
        "label": "caseExists",
        "offset": 0,
        "slot": "8",
        "type": "t_mapping(t_uint32,t_bool)"
      },
      {
        "astId": 3181,
        "contract": "contracts/CaseManager.sol:CaseManager",
        "label": "hasRole",
        "offset": 0,
        "slot": "9",
        "type": "t_mapping(t_address,t_uint256)"
      }
    ],
    "types": {
      "t_address": {
        "encoding": "inplace",
        "label": "address",
        "numberOfBytes": "20"
      },
      "t_bool": {
        "encoding": "inplace",
        "label": "bool",
        "numberOfBytes": "1"
      },
      "t_mapping(t_address,t_bool)": {
        "encoding": "mapping",
        "key": "t_address",
        "label": "mapping(address => bool)",
        "numberOfBytes": "32",
        "value": "t_bool"
      },
      "t_mapping(t_address,t_mapping(t_address,t_bool))": {
        "encoding": "mapping",
        "key": "t_address",
        "label": "mapping(address => mapping(address => bool))",
        "numberOfBytes": "32",
        "value": "t_mapping(t_address,t_bool)"
      },
      "t_mapping(t_address,t_uint256)": {
        "encoding": "mapping",
        "key": "t_address",
        "label": "mapping(address => uint256)",
        "numberOfBytes": "32",
        "value": "t_uint256"
      },
      "t_mapping(t_uint256,t_mapping(t_address,t_uint256))": {
        "encoding": "mapping",
        "key": "t_uint256",
        "label": "mapping(uint256 => mapping(address => uint256))",
        "numberOfBytes": "32",
        "value": "t_mapping(t_address,t_uint256)"
      },
      "t_mapping(t_uint256,t_string_storage)": {
        "encoding": "mapping",
        "key": "t_uint256",
        "label": "mapping(uint256 => string)",
        "numberOfBytes": "32",
        "value": "t_string_storage"
      },
      "t_mapping(t_uint32,t_bool)": {
        "encoding": "mapping",
        "key": "t_uint32",
        "label": "mapping(uint32 => bool)",
        "numberOfBytes": "32",
        "value": "t_bool"
      },
      "t_string_storage": {
        "encoding": "bytes",
        "label": "string",
        "numberOfBytes": "32"
      },
      "t_uint256": {
        "encoding": "inplace",
        "label": "uint256",
        "numberOfBytes": "32"
      },
      "t_uint32": {
        "encoding": "inplace",
        "label": "uint32",
        "numberOfBytes": "4"
      }
    }
  }
}