{
  "address": "0xEC6B0295fDb988952652ed75e1EECC3e94237A46",
  "abi": [
    {
      "inputs": [
        {
          "internalType": "address",
          "name": "_caseManagerAddress",
          "type": "address"
        }
      ],
      "stateMutability": "nonpayable",
      "type": "constructor"
    },
    {
      "inputs": [],
      "name": "DocumentNotary__Busy",
      "type": "error"
    },
    {
      "inputs": [],
      "name": "DocumentNotary__CaseHasNoDocuments",
      "type": "error"
    },
    {
      "inputs": [],
      "name": "DocumentNotary__DocumentAlreadyExists",
      "type": "error"
    },
    {
      "inputs": [],
      "name": "DocumentNotary__DocumentDoesNotExist",
      "type": "error"
    },
    {
      "inputs": [],
      "name": "DocumentNotary__DoesNotCoverFees",
      "type": "error"
    },
    {
      "inputs": [],
      "name": "DocumentNotary__NotAuthorized",
      "type": "error"
    },
    {
      "inputs": [],
      "name": "DocumentNotary__RenouncingOwnershipNotAllowed",
      "type": "error"
    },
    {
      "inputs": [],
      "name": "DocumentNotary__UserHasNoDocuments",
      "type": "error"
    },
    {
      "anonymous": false,
      "inputs": [
        {
          "indexed": false,
          "internalType": "address",
          "name": "_newCaseManagerAddress",
          "type": "address"
        }
      ],
      "name": "NewCaseManagerAddressSet",
      "type": "event"
    },
    {
      "anonymous": false,
      "inputs": [
        {
          "indexed": true,
          "internalType": "bytes32",
          "name": "_hash",
          "type": "bytes32"
        },
        {
          "indexed": false,
          "internalType": "uint32",
          "name": "_caseId",
          "type": "uint32"
        },
        {
          "indexed": false,
          "internalType": "string",
          "name": "_ipfsHash",
          "type": "string"
        }
      ],
      "name": "NewDocumentFiled",
      "type": "event"
    },
    {
      "anonymous": false,
      "inputs": [
        {
          "indexed": false,
          "internalType": "uint256",
          "name": "_newFee",
          "type": "uint256"
        }
      ],
      "name": "NewFeeSet",
      "type": "event"
    },
    {
      "anonymous": false,
      "inputs": [
        {
          "indexed": false,
          "internalType": "address",
          "name": "_oldOwner",
          "type": "address"
        },
        {
          "indexed": false,
          "internalType": "address",
          "name": "_newOwner",
          "type": "address"
        }
      ],
      "name": "OwnershipTransferred",
      "type": "event"
    },
    {
      "inputs": [
        {
          "internalType": "bytes32",
          "name": "_hash",
          "type": "bytes32"
        },
        {
          "internalType": "uint32",
          "name": "_caseId",
          "type": "uint32"
        }
      ],
      "name": "getDocument",
      "outputs": [
        {
          "components": [
            {
              "internalType": "bytes32",
              "name": "hash",
              "type": "bytes32"
            },
            {
              "internalType": "address",
              "name": "owner",
              "type": "address"
            },
            {
              "internalType": "uint32",
              "name": "caseId",
              "type": "uint32"
            },
            {
              "internalType": "string",
              "name": "ipfsHash",
              "type": "string"
            }
          ],
          "internalType": "struct DocumentNotary.Document",
          "name": "",
          "type": "tuple"
        }
      ],
      "stateMutability": "view",
      "type": "function"
    },
    {
      "inputs": [
        {
          "internalType": "uint32",
          "name": "_caseId",
          "type": "uint32"
        }
      ],
      "name": "getDocumentsByCaseId",
      "outputs": [
        {
          "internalType": "bytes32[]",
          "name": "",
          "type": "bytes32[]"
        }
      ],
      "stateMutability": "view",
      "type": "function"
    },
    {
      "inputs": [
        {
          "internalType": "address",
          "name": "_userAddress",
          "type": "address"
        }
      ],
      "name": "getDocumentsByUser",
      "outputs": [
        {
          "internalType": "bytes32[]",
          "name": "",
          "type": "bytes32[]"
        }
      ],
      "stateMutability": "view",
      "type": "function"
    },
    {
      "inputs": [],
      "name": "getFee",
      "outputs": [
        {
          "internalType": "uint256",
          "name": "",
          "type": "uint256"
        }
      ],
      "stateMutability": "view",
      "type": "function"
    },
    {
      "inputs": [
        {
          "internalType": "address",
          "name": "_newCaseManagerAddress",
          "type": "address"
        }
      ],
      "name": "setCaseManagerAddress",
      "outputs": [],
      "stateMutability": "nonpayable",
      "type": "function"
    },
    {
      "inputs": [
        {
          "internalType": "uint256",
          "name": "_newFee",
          "type": "uint256"
        }
      ],
      "name": "setFee",
      "outputs": [],
      "stateMutability": "nonpayable",
      "type": "function"
    },
    {
      "inputs": [
        {
          "internalType": "bytes32",
          "name": "_hash",
          "type": "bytes32"
        },
        {
          "internalType": "uint32",
          "name": "_caseId",
          "type": "uint32"
        },
        {
          "internalType": "string",
          "name": "_ipfsHash",
          "type": "string"
        }
      ],
      "name": "storeDocumentHash",
      "outputs": [],
      "stateMutability": "payable",
      "type": "function"
    },
    {
      "inputs": [
        {
          "internalType": "address",
          "name": "_newOwner",
          "type": "address"
        }
      ],
      "name": "transferOwnership",
      "outputs": [],
      "stateMutability": "nonpayable",
      "type": "function"
    },
    {
      "inputs": [],
      "name": "withdrawFunds",
      "outputs": [],
      "stateMutability": "nonpayable",
      "type": "function"
    }
  ],
  "transactionHash": "0xd5eb82825216f80d0176f254ebaede7f38de2d2e44463fca6c1dcdebb56c73f2",
  "args": [
    "0xEAf918cc3aba362aDFBf6Ce1D95039bF4EbDB259"
  ],
  "numDeployments": 1,
  "solcInputHash": "fd34cd8bafaafeb839cddf5aca6da4db",
  "bytecode": "0x60806040526706f05b59d3b200006008553480156200001d57600080fd5b5060405162001a2a38038062001a2a833981810160405281019062000043919062000199565b33600560006101000a81548173ffffffffffffffffffffffffffffffffffffffff021916908373ffffffffffffffffffffffffffffffffffffffff16021790555080600660006101000a81548173ffffffffffffffffffffffffffffffffffffffff021916908373ffffffffffffffffffffffffffffffffffffffff160217905550600660009054906101000a900473ffffffffffffffffffffffffffffffffffffffff16600760006101000a81548173ffffffffffffffffffffffffffffffffffffffff021916908373ffffffffffffffffffffffffffffffffffffffff16021790555050620001cb565b600080fd5b600073ffffffffffffffffffffffffffffffffffffffff82169050919050565b6000620001618262000134565b9050919050565b620001738162000154565b81146200017f57600080fd5b50565b600081519050620001938162000168565b92915050565b600060208284031215620001b257620001b16200012f565b5b6000620001c28482850162000182565b91505092915050565b61184f80620001db6000396000f3fe6080604052600436106100865760003560e01c80637f94cbbe116100595780637f94cbbe14610124578063ced72f871461014d578063d7eaaccc14610178578063e6a500be146101b5578063f2fde38b146101f257610086565b80630b4ea5271461008b57806324600fc3146100a75780635e3c461a146100be57806369fe0e2d146100fb575b600080fd5b6100a560048036038101906100a09190611069565b61021b565b005b3480156100b357600080fd5b506100bc6105d8565b005b3480156100ca57600080fd5b506100e560048036038101906100e091906110d8565b6106ca565b6040516100f29190611259565b60405180910390f35b34801561010757600080fd5b50610122600480360381019061011d91906112b1565b6108a0565b005b34801561013057600080fd5b5061014b6004803603810190610146919061130a565b610968565b005b34801561015957600080fd5b50610162610acd565b60405161016f9190611346565b60405180910390f35b34801561018457600080fd5b5061019f600480360381019061019a919061130a565b610ad7565b6040516101ac9190611410565b60405180910390f35b3480156101c157600080fd5b506101dc60048036038101906101d79190611432565b610bf1565b6040516101e99190611410565b60405180910390f35b3480156101fe57600080fd5b506102196004803603810190610214919061130a565b610cc4565b005b600960009054906101000a900460ff1615610262576040517f3bb4928c00000000000000000000000000000000000000000000000000000000815260040160405180910390fd5b6001600960006101000a81548160ff0219169083151502179055506008543410156102b9576040517f6bf2f73600000000000000000000000000000000000000000000000000000000815260040160405180910390fd5b600460008363ffffffff1663ffffffff168152602001908152602001600020600084815260200190815260200160002060009054906101000a900460ff161561032e576040517f2095a55300000000000000000000000000000000000000000000000000000000815260040160405180910390fd5b600060405180608001604052808581526020013373ffffffffffffffffffffffffffffffffffffffff1681526020018463ffffffff1681526020018381525090506001600260003373ffffffffffffffffffffffffffffffffffffffff1673ffffffffffffffffffffffffffffffffffffffff16815260200190815260200160002060006101000a81548160ff0219169083151502179055506001600460008563ffffffff1663ffffffff168152602001908152602001600020600086815260200190815260200160002060006101000a81548160ff021916908315150217905550806000808563ffffffff1663ffffffff16815260200190815260200160002060008681526020019081526020016000206000820151816000015560208201518160010160006101000a81548173ffffffffffffffffffffffffffffffffffffffff021916908373ffffffffffffffffffffffffffffffffffffffff16021790555060408201518160010160146101000a81548163ffffffff021916908363ffffffff16021790555060608201518160020190816104cd919061166b565b50905050600160003373ffffffffffffffffffffffffffffffffffffffff1673ffffffffffffffffffffffffffffffffffffffff168152602001908152602001600020849080600181540180825580915050600190039060005260206000200160009091909190915055600360008463ffffffff1663ffffffff1681526020019081526020016000208490806001815401808255809150506001900390600052602060002001600090919091909150556000600960006101000a81548160ff021916908315150217905550837fcb19ace03a64d193c1021f327f4f61ae782ebcbd993505af55db895d74efc6c484846040516105ca929190611796565b60405180910390a250505050565b600560009054906101000a900473ffffffffffffffffffffffffffffffffffffffff1673ffffffffffffffffffffffffffffffffffffffff163373ffffffffffffffffffffffffffffffffffffffff161461065f576040517fe25640ae00000000000000000000000000000000000000000000000000000000815260040160405180910390fd5b600560009054906101000a900473ffffffffffffffffffffffffffffffffffffffff1673ffffffffffffffffffffffffffffffffffffffff166108fc479081150290604051600060405180830381858888f193505050501580156106c7573d6000803e3d6000fd5b50565b6106d2610e56565b600460008363ffffffff1663ffffffff168152602001908152602001600020600084815260200190815260200160002060009054906101000a900460ff16610746576040517f46f0620200000000000000000000000000000000000000000000000000000000815260040160405180910390fd5b6000808363ffffffff1663ffffffff1681526020019081526020016000206000848152602001908152602001600020604051806080016040529081600082015481526020016001820160009054906101000a900473ffffffffffffffffffffffffffffffffffffffff1673ffffffffffffffffffffffffffffffffffffffff1673ffffffffffffffffffffffffffffffffffffffff1681526020016001820160149054906101000a900463ffffffff1663ffffffff1663ffffffff1681526020016002820180546108169061148e565b80601f01602080910402602001604051908101604052809291908181526020018280546108429061148e565b801561088f5780601f106108645761010080835404028352916020019161088f565b820191906000526020600020905b81548152906001019060200180831161087257829003601f168201915b505050505081525050905092915050565b600560009054906101000a900473ffffffffffffffffffffffffffffffffffffffff1673ffffffffffffffffffffffffffffffffffffffff163373ffffffffffffffffffffffffffffffffffffffff1614610927576040517fe25640ae00000000000000000000000000000000000000000000000000000000815260040160405180910390fd5b806008819055507f7214ada276dda68e2460c8f5b3a610e54171aeab13399f9fb3653226d30c327e8160405161095d9190611346565b60405180910390a150565b600560009054906101000a900473ffffffffffffffffffffffffffffffffffffffff1673ffffffffffffffffffffffffffffffffffffffff163373ffffffffffffffffffffffffffffffffffffffff16146109ef576040517fe25640ae00000000000000000000000000000000000000000000000000000000815260040160405180910390fd5b80600660006101000a81548173ffffffffffffffffffffffffffffffffffffffff021916908373ffffffffffffffffffffffffffffffffffffffff160217905550600660009054906101000a900473ffffffffffffffffffffffffffffffffffffffff16600760006101000a81548173ffffffffffffffffffffffffffffffffffffffff021916908373ffffffffffffffffffffffffffffffffffffffff1602179055507f059b4b542fc788264839fa7e2bc6c9c62b3b799f5bbbda27432d114599e2c21a81604051610ac291906117d5565b60405180910390a150565b6000600854905090565b6060600260008373ffffffffffffffffffffffffffffffffffffffff1673ffffffffffffffffffffffffffffffffffffffff16815260200190815260200160002060009054906101000a900460ff16610b5c576040517f101f2aef00000000000000000000000000000000000000000000000000000000815260040160405180910390fd5b600160008373ffffffffffffffffffffffffffffffffffffffff1673ffffffffffffffffffffffffffffffffffffffff168152602001908152602001600020805480602002602001604051908101604052809291908181526020018280548015610be557602002820191906000526020600020905b815481526020019060010190808311610bd1575b50505050509050919050565b60606000600360008463ffffffff1663ffffffff1681526020019081526020016000208054905003610c4f576040517f641b777000000000000000000000000000000000000000000000000000000000815260040160405180910390fd5b600360008363ffffffff1663ffffffff168152602001908152602001600020805480602002602001604051908101604052809291908181526020018280548015610cb857602002820191906000526020600020905b815481526020019060010190808311610ca4575b50505050509050919050565b600560009054906101000a900473ffffffffffffffffffffffffffffffffffffffff1673ffffffffffffffffffffffffffffffffffffffff163373ffffffffffffffffffffffffffffffffffffffff1614610d4b576040517fe25640ae00000000000000000000000000000000000000000000000000000000815260040160405180910390fd5b600073ffffffffffffffffffffffffffffffffffffffff168173ffffffffffffffffffffffffffffffffffffffff1603610db1576040517f3c2896a300000000000000000000000000000000000000000000000000000000815260040160405180910390fd5b6000600560009054906101000a900473ffffffffffffffffffffffffffffffffffffffff16905081600560006101000a81548173ffffffffffffffffffffffffffffffffffffffff021916908373ffffffffffffffffffffffffffffffffffffffff1602179055507f8be0079c531659141344cd1fd0a4f28419497f9722a3daafe3b4186f6b6457e08183604051610e4a9291906117f0565b60405180910390a15050565b604051806080016040528060008019168152602001600073ffffffffffffffffffffffffffffffffffffffff168152602001600063ffffffff168152602001606081525090565b6000604051905090565b600080fd5b600080fd5b6000819050919050565b610ec481610eb1565b8114610ecf57600080fd5b50565b600081359050610ee181610ebb565b92915050565b600063ffffffff82169050919050565b610f0081610ee7565b8114610f0b57600080fd5b50565b600081359050610f1d81610ef7565b92915050565b600080fd5b600080fd5b6000601f19601f8301169050919050565b7f4e487b7100000000000000000000000000000000000000000000000000000000600052604160045260246000fd5b610f7682610f2d565b810181811067ffffffffffffffff82111715610f9557610f94610f3e565b5b80604052505050565b6000610fa8610e9d565b9050610fb48282610f6d565b919050565b600067ffffffffffffffff821115610fd457610fd3610f3e565b5b610fdd82610f2d565b9050602081019050919050565b82818337600083830152505050565b600061100c61100784610fb9565b610f9e565b90508281526020810184848401111561102857611027610f28565b5b611033848285610fea565b509392505050565b600082601f8301126110505761104f610f23565b5b8135611060848260208601610ff9565b91505092915050565b60008060006060848603121561108257611081610ea7565b5b600061109086828701610ed2565b93505060206110a186828701610f0e565b925050604084013567ffffffffffffffff8111156110c2576110c1610eac565b5b6110ce8682870161103b565b9150509250925092565b600080604083850312156110ef576110ee610ea7565b5b60006110fd85828601610ed2565b925050602061110e85828601610f0e565b9150509250929050565b61112181610eb1565b82525050565b600073ffffffffffffffffffffffffffffffffffffffff82169050919050565b600061115282611127565b9050919050565b61116281611147565b82525050565b61117181610ee7565b82525050565b600081519050919050565b600082825260208201905092915050565b60005b838110156111b1578082015181840152602081019050611196565b60008484015250505050565b60006111c882611177565b6111d28185611182565b93506111e2818560208601611193565b6111eb81610f2d565b840191505092915050565b600060808301600083015161120e6000860182611118565b5060208301516112216020860182611159565b5060408301516112346040860182611168565b506060830151848203606086015261124c82826111bd565b9150508091505092915050565b6000602082019050818103600083015261127381846111f6565b905092915050565b6000819050919050565b61128e8161127b565b811461129957600080fd5b50565b6000813590506112ab81611285565b92915050565b6000602082840312156112c7576112c6610ea7565b5b60006112d58482850161129c565b91505092915050565b6112e781611147565b81146112f257600080fd5b50565b600081359050611304816112de565b92915050565b6000602082840312156113205761131f610ea7565b5b600061132e848285016112f5565b91505092915050565b6113408161127b565b82525050565b600060208201905061135b6000830184611337565b92915050565b600081519050919050565b600082825260208201905092915050565b6000819050602082019050919050565b60006113998383611118565b60208301905092915050565b6000602082019050919050565b60006113bd82611361565b6113c7818561136c565b93506113d28361137d565b8060005b838110156114035781516113ea888261138d565b97506113f5836113a5565b9250506001810190506113d6565b5085935050505092915050565b6000602082019050818103600083015261142a81846113b2565b905092915050565b60006020828403121561144857611447610ea7565b5b600061145684828501610f0e565b91505092915050565b7f4e487b7100000000000000000000000000000000000000000000000000000000600052602260045260246000fd5b600060028204905060018216806114a657607f821691505b6020821081036114b9576114b861145f565b5b50919050565b60008190508160005260206000209050919050565b60006020601f8301049050919050565b600082821b905092915050565b6000600883026115217fffffffffffffffffffffffffffffffffffffffffffffffffffffffffffffffff826114e4565b61152b86836114e4565b95508019841693508086168417925050509392505050565b6000819050919050565b600061156861156361155e8461127b565b611543565b61127b565b9050919050565b6000819050919050565b6115828361154d565b61159661158e8261156f565b8484546114f1565b825550505050565b600090565b6115ab61159e565b6115b6818484611579565b505050565b5b818110156115da576115cf6000826115a3565b6001810190506115bc565b5050565b601f82111561161f576115f0816114bf565b6115f9846114d4565b81016020851015611608578190505b61161c611614856114d4565b8301826115bb565b50505b505050565b600082821c905092915050565b600061164260001984600802611624565b1980831691505092915050565b600061165b8383611631565b9150826002028217905092915050565b61167482611177565b67ffffffffffffffff81111561168d5761168c610f3e565b5b611697825461148e565b6116a28282856115de565b600060209050601f8311600181146116d557600084156116c3578287015190505b6116cd858261164f565b865550611735565b601f1984166116e3866114bf565b60005b8281101561170b578489015182556001820191506020850194506020810190506116e6565b868310156117285784890151611724601f891682611631565b8355505b6001600288020188555050505b505050505050565b61174681610ee7565b82525050565b600082825260208201905092915050565b600061176882611177565b611772818561174c565b9350611782818560208601611193565b61178b81610f2d565b840191505092915050565b60006040820190506117ab600083018561173d565b81810360208301526117bd818461175d565b90509392505050565b6117cf81611147565b82525050565b60006020820190506117ea60008301846117c6565b92915050565b600060408201905061180560008301856117c6565b61181260208301846117c6565b939250505056fea2646970667358221220d9493708edba8d5a7758b832e66621fb58d2771476eec58d3375b1004e50c14564736f6c63430008110033",
  "devdoc": {
    "author": "ekiio",
    "kind": "dev",
    "methods": {
      "constructor": {
        "details": "Sets the contract owner's address. Also sets the address to the      CaseManager contract which is required to check if the user who      wants to upload files is authorized by the CaseManager contract      to do so, i.e. that they have the \"Party\" NFT to the _caseId."
      },
      "getDocument(bytes32,uint32)": {
        "details": "Queries the internal file cabinet for the requested document and      returns the Document struct with the stored metadata. Throws an      error if the hash could not be found in internal records."
      },
      "getDocumentsByCaseId(uint32)": {
        "details": "Returns an array of all document hashes that have been submitted      for a specific case. This will make presenting all the evidence      to the jury possible."
      },
      "getDocumentsByUser(address)": {
        "details": "Returns all the hashes a user has ever uploaded to the evidence      management system. This makes it easier to show users of the      dispute resolution platform all their submitted documents, e.g.      on their dashboard."
      },
      "getFee()": {
        "details": "Gets the current fee payable for using storeDocumentHash()."
      },
      "setCaseManagerAddress(address)": {
        "details": "Sets a new CaseManagerAddress to make the contract upgradeable."
      },
      "setFee(uint256)": {
        "details": "Sets a new fee to be paid for using the storeDocumentHash function"
      },
      "storeDocumentHash(bytes32,uint32,string)": {
        "details": "Stores a file's hash in the internal file cabinet if it has not      already been stored. Emits an event that a new Document has been      registered. Throws an error if the document is already registered.      Can only be accessed by the parties of the case, so the function      first checks for ownership of the corresponding NFT.      Has a simple reentrancy guard that checks if the function has      already been called and will revert if it is so. The function has      to do quite a few sanity checks before any operations are done, so      having a reentrancy guard in place will prevent double storage.",
        "params": {
          "_ipfsHash": "Currently of type string but this is very expensive. A        better approach for future versions would be to store a bytes32        type. This would require slicing off the first two bytes of the        IPFS hash which represent the hash version function, and store        the remainder in a bytes32 variable.        See; https://ethereum.stackexchange.com/questions/17094/how-to-store-ipfs-hash-using-bytes32/17112#17112"
        }
      },
      "transferOwnership(address)": {
        "details": "Transfers ownership of contract to new address. Renouncing      ownership is not allowed and will revert."
      },
      "withdrawFunds()": {
        "details": "Allows the contract owner to withdraw the contract's entire balance"
      }
    },
    "title": "Document Notary - Proof Of Existence",
    "version": 1
  },
  "userdoc": {
    "kind": "user",
    "methods": {},
    "notice": "A simple contract that stores a file's hash alongside the sender's         address, the corresponding case ID and a timestamp in a Document         struct. Will proove existence of an untampered file at a specific         point in time, which is particularly useful for an evidence         management system. A jury will be able to get a collection of facts         to a specific case on which they can e.g. vote if the evidence put         forth is truthful and will be admitted, e.g. in a court hearing or         in an arbitration.",
    "version": 1
  },
  "storageLayout": {
    "storage": [
      {
        "astId": 3543,
        "contract": "contracts/DocumentNotary.sol:DocumentNotary",
        "label": "cabinet",
        "offset": 0,
        "slot": "0",
        "type": "t_mapping(t_uint32,t_mapping(t_bytes32,t_struct(Document)3536_storage))"
      },
      {
        "astId": 3548,
        "contract": "contracts/DocumentNotary.sol:DocumentNotary",
        "label": "userDocs",
        "offset": 0,
        "slot": "1",
        "type": "t_mapping(t_address,t_array(t_bytes32)dyn_storage)"
      },
      {
        "astId": 3552,
        "contract": "contracts/DocumentNotary.sol:DocumentNotary",
        "label": "userHasDocs",
        "offset": 0,
        "slot": "2",
        "type": "t_mapping(t_address,t_bool)"
      },
      {
        "astId": 3557,
        "contract": "contracts/DocumentNotary.sol:DocumentNotary",
        "label": "caseDocs",
        "offset": 0,
        "slot": "3",
        "type": "t_mapping(t_uint32,t_array(t_bytes32)dyn_storage)"
      },
      {
        "astId": 3563,
        "contract": "contracts/DocumentNotary.sol:DocumentNotary",
        "label": "caseHasDocs",
        "offset": 0,
        "slot": "4",
        "type": "t_mapping(t_uint32,t_mapping(t_bytes32,t_bool))"
      },
      {
        "astId": 3565,
        "contract": "contracts/DocumentNotary.sol:DocumentNotary",
        "label": "s_owner",
        "offset": 0,
        "slot": "5",
        "type": "t_address"
      },
      {
        "astId": 3567,
        "contract": "contracts/DocumentNotary.sol:DocumentNotary",
        "label": "s_caseManagerAddress",
        "offset": 0,
        "slot": "6",
        "type": "t_address"
      },
      {
        "astId": 3570,
        "contract": "contracts/DocumentNotary.sol:DocumentNotary",
        "label": "s_caseManager",
        "offset": 0,
        "slot": "7",
        "type": "t_contract(ERC1155)1335"
      },
      {
        "astId": 3573,
        "contract": "contracts/DocumentNotary.sol:DocumentNotary",
        "label": "s_fee",
        "offset": 0,
        "slot": "8",
        "type": "t_uint256"
      },
      {
        "astId": 3575,
        "contract": "contracts/DocumentNotary.sol:DocumentNotary",
        "label": "busy",
        "offset": 0,
        "slot": "9",
        "type": "t_bool"
      }
    ],
    "types": {
      "t_address": {
        "encoding": "inplace",
        "label": "address",
        "numberOfBytes": "20"
      },
      "t_array(t_bytes32)dyn_storage": {
        "base": "t_bytes32",
        "encoding": "dynamic_array",
        "label": "bytes32[]",
        "numberOfBytes": "32"
      },
      "t_bool": {
        "encoding": "inplace",
        "label": "bool",
        "numberOfBytes": "1"
      },
      "t_bytes32": {
        "encoding": "inplace",
        "label": "bytes32",
        "numberOfBytes": "32"
      },
      "t_contract(ERC1155)1335": {
        "encoding": "inplace",
        "label": "contract ERC1155",
        "numberOfBytes": "20"
      },
      "t_mapping(t_address,t_array(t_bytes32)dyn_storage)": {
        "encoding": "mapping",
        "key": "t_address",
        "label": "mapping(address => bytes32[])",
        "numberOfBytes": "32",
        "value": "t_array(t_bytes32)dyn_storage"
      },
      "t_mapping(t_address,t_bool)": {
        "encoding": "mapping",
        "key": "t_address",
        "label": "mapping(address => bool)",
        "numberOfBytes": "32",
        "value": "t_bool"
      },
      "t_mapping(t_bytes32,t_bool)": {
        "encoding": "mapping",
        "key": "t_bytes32",
        "label": "mapping(bytes32 => bool)",
        "numberOfBytes": "32",
        "value": "t_bool"
      },
      "t_mapping(t_bytes32,t_struct(Document)3536_storage)": {
        "encoding": "mapping",
        "key": "t_bytes32",
        "label": "mapping(bytes32 => struct DocumentNotary.Document)",
        "numberOfBytes": "32",
        "value": "t_struct(Document)3536_storage"
      },
      "t_mapping(t_uint32,t_array(t_bytes32)dyn_storage)": {
        "encoding": "mapping",
        "key": "t_uint32",
        "label": "mapping(uint32 => bytes32[])",
        "numberOfBytes": "32",
        "value": "t_array(t_bytes32)dyn_storage"
      },
      "t_mapping(t_uint32,t_mapping(t_bytes32,t_bool))": {
        "encoding": "mapping",
        "key": "t_uint32",
        "label": "mapping(uint32 => mapping(bytes32 => bool))",
        "numberOfBytes": "32",
        "value": "t_mapping(t_bytes32,t_bool)"
      },
      "t_mapping(t_uint32,t_mapping(t_bytes32,t_struct(Document)3536_storage))": {
        "encoding": "mapping",
        "key": "t_uint32",
        "label": "mapping(uint32 => mapping(bytes32 => struct DocumentNotary.Document))",
        "numberOfBytes": "32",
        "value": "t_mapping(t_bytes32,t_struct(Document)3536_storage)"
      },
      "t_string_storage": {
        "encoding": "bytes",
        "label": "string",
        "numberOfBytes": "32"
      },
      "t_struct(Document)3536_storage": {
        "encoding": "inplace",
        "label": "struct DocumentNotary.Document",
        "members": [
          {
            "astId": 3529,
            "contract": "contracts/DocumentNotary.sol:DocumentNotary",
            "label": "hash",
            "offset": 0,
            "slot": "0",
            "type": "t_bytes32"
          },
          {
            "astId": 3531,
            "contract": "contracts/DocumentNotary.sol:DocumentNotary",
            "label": "owner",
            "offset": 0,
            "slot": "1",
            "type": "t_address"
          },
          {
            "astId": 3533,
            "contract": "contracts/DocumentNotary.sol:DocumentNotary",
            "label": "caseId",
            "offset": 20,
            "slot": "1",
            "type": "t_uint32"
          },
          {
            "astId": 3535,
            "contract": "contracts/DocumentNotary.sol:DocumentNotary",
            "label": "ipfsHash",
            "offset": 0,
            "slot": "2",
            "type": "t_string_storage"
          }
        ],
        "numberOfBytes": "96"
      },
      "t_uint256": {
        "encoding": "inplace",
        "label": "uint256",
        "numberOfBytes": "32"
      },
      "t_uint32": {
        "encoding": "inplace",
        "label": "uint32",
        "numberOfBytes": "4"
      }
    }
  }
}